:100000000C9434000C943E000C943E000C943E0082
:100010000C943E000C943E000C943E000C943E0068
:100020000C943E000C943E000C943E000C943E0058
:100030000C943E000C943E000C943E000C943E0048
:100040000C943E000C943E000C943E000C943E0038
:100050000C943E000C943E000C943E000C943E0028
:100060000C943E000C943E0011241FBECFEFD8E04C
:10007000DEBFCDBF0E9440000C9494000C940000A1
:1000800014B88FEF8AB981E087B99FE326E03BE59A
:100090004FE456E66DE67DE7E7E0F1E0AFE783B1D8
:1000A000811103C0F8B9ABB9FACF83B18130B1F493
:1000B00088B98FEFB9E6C8E18150B040C040E1F7A0
:1000C00000C0000018B88FEFB9E6C8E18150B04019
:1000D000C040E1F700C00000EBB9E1CF83B183304D
:1000E00019F418B87BB9DBCF83B1873019F418B88D
:1000F0006BB9D5CF83B18F3019F418B85BB9CFCFB6
:1001000083B18F3119F418B84BB9C9CF83B18F338C
:1001100019F418B83BB9C3CF83B118B88F3711F4AD
:0C0120002BB9BDCF9BB9BBCFF894FFCF2B
:00000001FF
